{
  "contractName": "TodoList",
  "abi": [
    {
      "constant": true,
      "inputs": [
        {
          "name": "",
          "type": "uint256"
        }
      ],
      "name": "tasks",
      "outputs": [
        {
          "name": "id",
          "type": "uint256"
        },
        {
          "name": "content",
          "type": "string"
        },
        {
          "name": "completed",
          "type": "bool"
        },
        {
          "name": "dueDate",
          "type": "uint256"
        },
        {
          "name": "category",
          "type": "string"
        }
      ],
      "payable": false,
      "stateMutability": "view",
      "type": "function"
    },
    {
      "constant": true,
      "inputs": [],
      "name": "taskCount",
      "outputs": [
        {
          "name": "",
          "type": "uint256"
        }
      ],
      "payable": false,
      "stateMutability": "view",
      "type": "function"
    },
    {
      "inputs": [],
      "payable": false,
      "stateMutability": "nonpayable",
      "type": "constructor"
    },
    {
      "anonymous": false,
      "inputs": [
        {
          "indexed": false,
          "name": "id",
          "type": "uint256"
        },
        {
          "indexed": false,
          "name": "content",
          "type": "string"
        },
        {
          "indexed": false,
          "name": "completed",
          "type": "bool"
        },
        {
          "indexed": false,
          "name": "dueDate",
          "type": "uint256"
        },
        {
          "indexed": false,
          "name": "category",
          "type": "string"
        }
      ],
      "name": "TaskCreated",
      "type": "event"
    },
    {
      "anonymous": false,
      "inputs": [
        {
          "indexed": false,
          "name": "id",
          "type": "uint256"
        },
        {
          "indexed": false,
          "name": "completed",
          "type": "bool"
        }
      ],
      "name": "TaskCompleted",
      "type": "event"
    },
    {
      "constant": false,
      "inputs": [
        {
          "name": "_content",
          "type": "string"
        },
        {
          "name": "_dueDate",
          "type": "uint256"
        },
        {
          "name": "_category",
          "type": "string"
        }
      ],
      "name": "createTask",
      "outputs": [],
      "payable": false,
      "stateMutability": "nonpayable",
      "type": "function"
    },
    {
      "constant": false,
      "inputs": [
        {
          "name": "_id",
          "type": "uint256"
        }
      ],
      "name": "toggleCompleted",
      "outputs": [],
      "payable": false,
      "stateMutability": "nonpayable",
      "type": "function"
    }
  ],
  "bytecode": "0x6080604052600080553480156200001557600080fd5b506200009d6040805190810160405280601c81526020017f436865636b206f75742064617070756e69766572736974792e636f6d0000000081525060006040805190810160405280600581526020017f4f74686572000000000000000000000000000000000000000000000000000000815250620000a3640100000000026401000000009004565b6200034c565b600080815480929190600101919050555060a06040519081016040528060005481526020018481526020016000151581526020018381526020018281525060016000805481526020019081526020016000206000820151816000015560208201518160010190805190602001906200011d9291906200029d565b5060408201518160020160006101000a81548160ff021916908315150217905550606082015181600301556080820151816004019080519060200190620001669291906200029d565b509050507fc0fff5fe410bab0f97e0eeb8265e99dce003dda2e7cba71662624cc2e81c7e6b600054846000858560405180868152602001806020018515151515815260200184815260200180602001838103835287818151815260200191508051906020019080838360005b83811015620001ef578082015181840152602081019050620001d2565b50505050905090810190601f1680156200021d5780820380516001836020036101000a031916815260200191505b50838103825284818151815260200191508051906020019080838360005b83811015620002585780820151818401526020810190506200023b565b50505050905090810190601f168015620002865780820380516001836020036101000a031916815260200191505b5097505050505050505060405180910390a1505050565b828054600181600116156101000203166002900490600052602060002090601f016020900481019282601f10620002e057805160ff191683800117855562000311565b8280016001018555821562000311579182015b8281111562000310578251825591602001919060010190620002f3565b5b50905062000320919062000324565b5090565b6200034991905b80821115620003455760008160009055506001016200032b565b5090565b90565b610a56806200035c6000396000f3fe60806040526004361061005c576000357c01000000000000000000000000000000000000000000000000000000009004806316c7ac9014610061578063455f5024146101ca5780638d97767214610205578063b6cb58a51461033e575b600080fd5b34801561006d57600080fd5b506101c86004803603606081101561008457600080fd5b81019080803590602001906401000000008111156100a157600080fd5b8201836020820111156100b357600080fd5b803590602001918460018302840111640100000000831117156100d557600080fd5b91908080601f016020809104026020016040519081016040528093929190818152602001838380828437600081840152601f19601f820116905080830192505050505050509192919290803590602001909291908035906020019064010000000081111561014257600080fd5b82018360208201111561015457600080fd5b8035906020019184600183028401116401000000008311171561017657600080fd5b91908080601f016020809104026020016040519081016040528093929190818152602001838380828437600081840152601f19601f820116905080830192505050505050509192919290505050610369565b005b3480156101d657600080fd5b50610203600480360360208110156101ed57600080fd5b8101908080359060200190929190505050610559565b005b34801561021157600080fd5b5061023e6004803603602081101561022857600080fd5b81019080803590602001909291905050506107da565b60405180868152602001806020018515151515815260200184815260200180602001838103835287818151815260200191508051906020019080838360005b8381101561029857808201518184015260208101905061027d565b50505050905090810190601f1680156102c55780820380516001836020036101000a031916815260200191505b50838103825284818151815260200191508051906020019080838360005b838110156102fe5780820151818401526020810190506102e3565b50505050905090810190601f16801561032b5780820380516001836020036101000a031916815260200191505b5097505050505050505060405180910390f35b34801561034a57600080fd5b5061035361094d565b6040518082815260200191505060405180910390f35b600080815480929190600101919050555060a06040519081016040528060005481526020018481526020016000151581526020018381526020018281525060016000805481526020019081526020016000206000820151816000015560208201518160010190805190602001906103e1929190610953565b5060408201518160020160006101000a81548160ff021916908315150217905550606082015181600301556080820151816004019080519060200190610428929190610953565b509050507fc0fff5fe410bab0f97e0eeb8265e99dce003dda2e7cba71662624cc2e81c7e6b600054846000858560405180868152602001806020018515151515815260200184815260200180602001838103835287818151815260200191508051906020019080838360005b838110156104af578082015181840152602081019050610494565b50505050905090810190601f1680156104dc5780820380516001836020036101000a031916815260200191505b50838103825284818151815260200191508051906020019080838360005b838110156105155780820151818401526020810190506104fa565b50505050905090810190601f1680156105425780820380516001836020036101000a031916815260200191505b5097505050505050505060405180910390a1505050565b6105616109d3565b6001600083815260200190815260200160002060a0604051908101604052908160008201548152602001600182018054600181600116156101000203166002900480601f0160208091040260200160405190810160405280929190818152602001828054600181600116156101000203166002900480156106235780601f106105f857610100808354040283529160200191610623565b820191906000526020600020905b81548152906001019060200180831161060657829003601f168201915b505050505081526020016002820160009054906101000a900460ff1615151515815260200160038201548152602001600482018054600181600116156101000203166002900480601f0160208091040260200160405190810160405280929190818152602001828054600181600116156101000203166002900480156106ea5780601f106106bf576101008083540402835291602001916106ea565b820191906000526020600020905b8154815290600101906020018083116106cd57829003601f168201915b50505050508152505090508060400151158160400190151590811515815250508060016000848152602001908152602001600020600082015181600001556020820151816001019080519060200190610744929190610953565b5060408201518160020160006101000a81548160ff02191690831515021790555060608201518160030155608082015181600401908051906020019061078b929190610953565b509050507fe21fa966ca5cd02748c0752352d18c48165e61cb55b4c29cccf924b5a95fcff182826040015160405180838152602001821515151581526020019250505060405180910390a15050565b6001602052806000526040600020600091509050806000015490806001018054600181600116156101000203166002900480601f01602080910402602001604051908101604052809291908181526020018280546001816001161561010002031660029004801561088c5780601f106108615761010080835404028352916020019161088c565b820191906000526020600020905b81548152906001019060200180831161086f57829003601f168201915b5050505050908060020160009054906101000a900460ff1690806003015490806004018054600181600116156101000203166002900480601f0160208091040260200160405190810160405280929190818152602001828054600181600116156101000203166002900480156109435780601f1061091857610100808354040283529160200191610943565b820191906000526020600020905b81548152906001019060200180831161092657829003601f168201915b5050505050905085565b60005481565b828054600181600116156101000203166002900490600052602060002090601f016020900481019282601f1061099457805160ff19168380011785556109c2565b828001600101855582156109c2579182015b828111156109c15782518255916020019190600101906109a6565b5b5090506109cf9190610a05565b5090565b60a060405190810160405280600081526020016060815260200160001515815260200160008152602001606081525090565b610a2791905b80821115610a23576000816000905550600101610a0b565b5090565b9056fea165627a7a72305820f1b9f335cd0ab5a07804c4ee200605c1c631d5a5597c0ce9d0a0c2850f3960ab0029",
  "source": "pragma solidity ^0.5.0;\n\ncontract TodoList {\n  uint public taskCount = 0;\n\n  struct Task {\n    uint id;\n    string content;\n    bool completed;\n    uint dueDate;\n    string category;\n  }\n\n  mapping(uint => Task) public tasks;\n\n  event TaskCreated(\n    uint id,\n    string content,\n    bool completed,\n    uint dueDate,\n    string category\n  );\n\n  event TaskCompleted(\n    uint id,\n    bool completed\n  );\n\n  constructor() public {\n    createTask(\"Check out dappuniversity.com\", 0, \"Other\");\n  }\n\n  function createTask(\n    string memory _content,\n    uint _dueDate,\n    string memory _category\n  ) public {\n    taskCount++;\n\n    tasks[taskCount] = Task(\n      taskCount,\n      _content,\n      false,\n      _dueDate,\n      _category\n    );\n\n    emit TaskCreated(\n      taskCount,\n      _content,\n      false,\n      _dueDate,\n      _category\n    );\n  }\n\n  function toggleCompleted(uint _id) public {\n    Task memory _task = tasks[_id];\n    _task.completed = !_task.completed;\n    tasks[_id] = _task;\n\n    emit TaskCompleted(_id, _task.completed);\n  }\n}",
  "sourcePath": "/Users/crin/eth-todo-list-ibc/contracts/ToDoList.sol",
  "compiler": {
    "name": "solc",
    "version": "0.5.1+commit.c8a2cb62.Emscripten.clang"
  },
  "schemaVersion": "3.4.16",
  "updatedAt": "2026-05-21T08:09:42.681Z",
  "networkType": "ethereum",
  "devdoc": {
    "methods": {}
  },
  "userdoc": {
    "methods": {}
  }
}